{"abi":[{"type":"function","name":"getHead","inputs":[{"name":"agent","type":"address","internalType":"address"}],"outputs":[{"name":"","type":"string","internalType":"string"}],"stateMutability":"view"},{"type":"function","name":"updateHead","inputs":[{"name":"cid","type":"string","internalType":"string"}],"outputs":[],"stateMutability":"nonpayable"},{"type":"event","name":"HeadUpdated","inputs":[{"name":"agent","type":"address","indexed":true,"internalType":"address"},{"name":"cid","type":"string","indexed":false,"internalType":"string"},{"name":"timestamp","type":"uint256","indexed":false,"internalType":"uint256"}],"anonymous":false}],"bytecode":{"object":"0x608060405234801561000f575f80fd5b5061078b8061001d5f395ff3fe608060405234801561000f575f80fd5b5060043610610034575f3560e01c806334abd85c14610038578063bbfa3d4a14610054575b5f80fd5b610052600480360381019061004d919061025b565b610084565b005b61006e60048036038101906100699190610300565b610126565b60405161007b91906103b5565b60405180910390f35b81815f803373ffffffffffffffffffffffffffffffffffffffff1673ffffffffffffffffffffffffffffffffffffffff1681526020019081526020015f2091826100cf92919061060f565b503373ffffffffffffffffffffffffffffffffffffffff167f4a38c5f4f3ec457b660579ec5cd0a126379e1a5ea1d82783b359a478e9799e8f83834260405161011a93929190610725565b60405180910390a25050565b60605f808373ffffffffffffffffffffffffffffffffffffffff1673ffffffffffffffffffffffffffffffffffffffff1681526020019081526020015f20805461016f90610439565b80601f016020809104026020016040519081016040528092919081815260200182805461019b90610439565b80156101e65780601f106101bd576101008083540402835291602001916101e6565b820191905f5260205f20905b8154815290600101906020018083116101c957829003601f168201915b50505050509050919050565b5f80fd5b5f80fd5b5f80fd5b5f80fd5b5f80fd5b5f8083601f84011261021b5761021a6101fa565b5b8235905067ffffffffffffffff811115610238576102376101fe565b5b60208301915083600182028301111561025457610253610202565b5b9250929050565b5f8060208385031215610271576102706101f2565b5b5f83013567ffffffffffffffff81111561028e5761028d6101f6565b5b61029a85828601610206565b92509250509250929050565b5f73ffffffffffffffffffffffffffffffffffffffff82169050919050565b5f6102cf826102a6565b9050919050565b6102df816102c5565b81146102e9575f80fd5b50565b5f813590506102fa816102d6565b92915050565b5f60208284031215610315576103146101f2565b5b5f610322848285016102ec565b91505092915050565b5f81519050919050565b5f82825260208201905092915050565b5f5b83811015610362578082015181840152602081019050610347565b5f8484015250505050565b5f601f19601f8301169050919050565b5f6103878261032b565b6103918185610335565b93506103a1818560208601610345565b6103aa8161036d565b840191505092915050565b5f6020820190508181035f8301526103cd818461037d565b905092915050565b5f82905092915050565b7f4e487b71000000000000000000000000000000000000000000000000000000005f52604160045260245ffd5b7f4e487b71000000000000000000000000000000000000000000000000000000005f52602260045260245ffd5b5f600282049050600182168061045057607f821691505b6020821081036104635761046261040c565b5b50919050565b5f819050815f5260205f209050919050565b5f6020601f8301049050919050565b5f82821b905092915050565b5f600883026104c57fffffffffffffffffffffffffffffffffffffffffffffffffffffffffffffffff8261048a565b6104cf868361048a565b95508019841693508086168417925050509392505050565b5f819050919050565b5f819050919050565b5f61051361050e610509846104e7565b6104f0565b6104e7565b9050919050565b5f819050919050565b61052c836104f9565b6105406105388261051a565b848454610496565b825550505050565b5f90565b610554610548565b61055f818484610523565b505050565b5b81811015610582576105775f8261054c565b600181019050610565565b5050565b601f8211156105c75761059881610469565b6105a18461047b565b810160208510156105b0578190505b6105c46105bc8561047b565b830182610564565b50505b505050565b5f82821c905092915050565b5f6105e75f19846008026105cc565b1980831691505092915050565b5f6105ff83836105d8565b9150826002028217905092915050565b61061983836103d5565b67ffffffffffffffff811115610632576106316103df565b5b61063c8254610439565b610647828285610586565b5f601f831160018114610674575f8415610662578287013590505b61066c85826105f4565b8655506106d3565b601f19841661068286610469565b5f5b828110156106a957848901358255600182019150602085019450602081019050610684565b868310156106c657848901356106c2601f8916826105d8565b8355505b6001600288020188555050505b50505050505050565b828183375f83830152505050565b5f6106f58385610335565b93506107028385846106dc565b61070b8361036d565b840190509392505050565b61071f816104e7565b82525050565b5f6040820190508181035f83015261073e8185876106ea565b905061074d6020830184610716565b94935050505056fea264697066735822122071ab99720052da912820dd09fc695e9459a09c64e76815ef01fbde4e8002098a64736f6c63430008180033","linkReferences":{}},"methodIdentifiers":{"getHead(address)":"bbfa3d4a","updateHead(string)":"34abd85c"},"id":21}